:020000040800F2
:10000000E804002001010008EB1D00087319000836
:10001000E91D00085D0700088D20000800000000B1
:10002000000000000000000000000000EF1D0008BC
:100030005F07000800000000ED1D0008F11D00082A
:100040001B0100081B0100081B0100081B01000820
:100050001B0100081B0100081B0100081B01000810
:100060001B0100081B0100081B0100081B01000800
:100070001B0100081B0100081B0100081B010008F0
:100080001B0100081B0100081B0100081B010008E0
:100090001B0100081B0100081B0100081B010008D0
:1000A0001B0100081B0100081B0100081B010008C0
:1000B0008D1E00081B0100081B0100081B01000821
:1000C0001B0100081B0100081B0100081B010008A0
:1000D0001B0100081B0100081B0100081B01000890
:1000E0001B0100081B0100081B010008DFF80CD0F1
:1000F00000F022FB00480047BD270008E80400206C
:100100000648804706480047FEE7FEE7FEE7FEE7B1
:10011000FEE7FEE7FEE7FEE7FEE7FEE7451E000816
:10012000ED000008202A04DB203A21FA02F0002129
:10013000704721FA02F3D040C2F1200291400843F7
:1001400019467047D2B201E000F8012B491EFBD2DC
:1001500070470022F6E710B513460A4604461946D2
:10016000FFF7F0FF204610BD2DE9FE4F804681EAE3
:100170000300C00F0C46009021F0004123F0004521
:10018000B8EB0200A94105D24046214690461C46E4
:100190000B46024623F00040104347D0270DC7F31B
:1001A0000A00C3F30A510290401A019040286BDA0A
:1001B000C3F3130040F4801B0098924620B1002343
:1001C000D2EB030A63EB0B0B01985946C0F14002D6
:1001D000504600F0B2F906460D4650465946019A7F
:1001E00000F0BAF910EB08006141002487EA1152CF
:1001F00084EAE7731A4340D0009A62B3019A012A55
:100200004FEA075215DC001B61EB02014FF0004280
:1002100002EA0752CDE90042001C41F58011324646
:100220002B4600F0BAF903B0BDE8F08F40462146F6
:10023000F9E7001B61EB0201001C41F58013001877
:100240005B412018A2F5001747EB030140EAD57087
:10025000B6196D4111E06D084FEA360645EAC075E2
:100260004FEA0752001B61EB0201001C41F58011AF
:1002700049084FEA30000019514132462B4603B07D
:10028000BDE8F04F00F07AB9009801224000002349
:10029000D0EB020263EBE073009821464FEAE07472
:1002A000B8EB000061EB0401E9E783F000435BE792
:1002B00081F0004158E72DE9FE4F81EA030404F084
:1002C000004421F0004100944FF0000B23F0004364
:1002D00050EA01045ED052EA03045BD0C3F30A542F
:1002E000C1F30A552C44A4F2F3340194A0FB025448
:1002F000C1F3130141F48011C3F3130343F48013DA
:1003000001FB024400FB034E840A970A44EA81542D
:1003100047EA8357A4FB076802958D0A05FB07850A
:100320004FEA932C04FB0C542705029D4FEA065814
:1003300047EA1637B5EB08056EEB070C870E920EF1
:1003400047EA811742EA8312A7FB0201B6EB0B01D1
:1003500064EB00042B0D43EA0C335E1844EB1C5095
:10036000DA465146E7FB0201C5F313044FEA0B33AB
:1003700043EA14534FEA0432019C43EA0603A4F112
:100380000C040294009CCDE900B400F006F903B01F
:10039000BDE8F08F00200146F9E72DE9F04D81EA34
:1003A000030404F0004B21F0004514464FF0000A0E
:1003B00023F0004150EA050220D054EA01021DD08A
:1003C000C5F30A570246C5F31303C1F31300C1F383
:1003D0000A5640F4801543F48013A7EB0608101B5F
:1003E000D64608F2FD3873EB050002D308F1010888
:1003F00001E092185B41B8F1000F03DA00200146DA
:10040000BDE8F08D00204FF48011064684460EE0D2
:10041000171B73EB050705D3121B63EB050306439C
:100420004CEA010C49084FEA300092185B4150EA4F
:100430000107EDD152EA030012D082EA040083EAF8
:100440000501084305D0101BAB4106D20122002351
:1004500006E000224FF0004302E06FF0010253106B
:100460001AEB06004CEB085110EB0A0041EB0B01B4
:10047000BDE8F04D00F082B80EB5C10F80EAE07023
:100480000844CA07002140F233438DE80E000A46B3
:100490000B4600F082F803B000BD70B5C1F30A52FC
:1004A00001F000450024C1F3130140F2FF3341F491
:1004B00080119A4201DA002070BD40F233439A4223
:1004C000A2F2334203DC5242FFF72CFE00E09040E0
:1004D0002C43F1D0404270BD2DE9F05F054600206D
:1004E00092469B4688460646814640241BE02846A5
:1004F000414647462246FFF715FE53465A46C01A64
:10050000914110D311461846224600F016F82D1AD4
:1005100067EB01084F4622460120002100F00DF84C
:1005200017EB00094E41201EA4F10104DFDC484610
:1005300031462A464346BDE8F09F202A04DB203A94
:1005400000FA02F1002070479140C2F1200320FA26
:1005500003F3194390407047202A06DBCB17203A5B
:1005600041FA02F043EAE07306E041FA02F3D040B8
:10057000C2F12002914008431946704710B5141E7D
:1005800073F1000408DA401C41F1000192185B414C
:100590001A4301D120F0010010BD2DE9F04D924623
:1005A0009B4611B1B1FA81F202E0B0FA80F220323A
:1005B0009046FFF7C2FF04460F4640EA0A0041EAB0
:1005C0000B0153465A46084313D0114653EA010023
:1005D00019D0C8F140025046FFF7A4FD05460E466B
:1005E000504659464246FFF7A8FF084305D0012070
:1005F00004E020463946BDE8F08D0020054346EA78
:10060000E0762C4337430A986305E40AA0EB080020
:100610000022FD0A44EA47540A3002D50020014670
:10062000E9E7010510196941DDE90845001969414B
:10063000BDE8F04DA2E770B521F0004303430CD0B4
:10064000C1F30A550024D5EB040564EB0403D61767
:10065000AD1AB34102DB0020014670BD201841EB0A
:10066000025170BD2DE9F04D00231A461B1A8A4134
:1006700003DB00200146BDE8F08DC1F30A52C1F34F
:10068000130141F480154FF0000BD10702D100187F
:100690006D41521E0027044640F2FF11384601EB1F
:1006A000620A3E468046024600204FF48011FFF762
:1006B00039FDC2197141BB1846EB0100B4EB030CC4
:1006C00075EB000C04D3E41A65EB000517460E46E3
:1006D000241908F101006D4180463428E3DDF91941
:1006E00046EB0600091BA84103D24FF0FF32134628
:1006F00001E0002213461BEB070046EB0A51BDE860
:10070000F04DFFF73BBF000030B5041E71F100044F
:1007100004DB4FF00044404264EB0101141E73F10E
:10072000000405DB1C464FF00043524263EB040318
:10073000994208BF904230BD064C074D06E0E06884
:1007400040F0010394E8070098471034AC42F6D318
:10075000FFF7D0FC7835000898350008FEE77047B1
:1007600070B5044600F004F90546601C02D0044848
:100770000078044400F0FCF8401BA042FAD370BD9E
:10078000000000202DE9F84FDFF8B891002409F1AE
:10079000040A0AF1040B23460F270BF1040EC9E0EB
:1007A0000125A5402A40AA427DD1674ED1F804C058
:1007B000ACEB0608B44532D014DCBCF1030F3AD0E0
:1007C00009DCBCF1000F2AD0BCF1010F1CD0BCF138
:1007D000020F31D11DE0BCF1110F17D0BCF1120F87
:1007E0002AD119E0B8F5881F19D006DCB8F5803F8A
:1007F00015D0B8F5801F1FD111E0B8F5001F0ED03D
:10080000B8F5041F18D10AE0CB6815E0CB681B1DB2
:1008100012E0CB6808330FE0CB680C330CE08B6838
:100820002BB1012B4FF0080303D0456104E00423F2
:1008300002E0056100E00023FF2A01D8064601E03E
:1008400000F104064FEA840501D9A5F12005D6F888
:10085000008007FA05FC28EA0C0803FA05F548EAC7
:100860000508C6F800804D68ED0062D5374DAE69C9
:1008700046F00106AE61AD6924F0030605F00105FE
:100880000095334D06EB050CDCF80850A607360F33
:1008900007FA06F825EA0805DFF8B880404503D1D5
:1008A0004FF0000817E044E0DFF8AC80404502D18B
:1008B0004FF001080FE0DFF8A480404502D14FF06F
:1008C000020808E0DFF89880404502D14FF00308A5
:1008D00001E04FF0040808FA06F848EA0508CCF8E9
:1008E00008804D68D9F80060ED034D4601D51643E8
:1008F00000E096432E604D68DAF80060AD0355467F
:1009000001D5164300E096432E604D68DBF8006089
:10091000ED025D4601D5164300E096432E604D681A
:10092000DEF80060AD02754601D5164300E096433F
:100930002E60641C0D682A46E5407FF431AFBDE8A7
:10094000F88F000000040140000011100010024068
:100950000000014000080140000C0140001001406F
:10096000001401400AB1016170470904FBE700006F
:1009700001488068704700000000002070B5040046
:100980001BD094F83D00002520B984F83C50204647
:1009900000F056FA242084F83D002068016821F018
:1009A0000101016000F0A8FB4D4A6168914201D845
:1009B0004C4900E04C49884201D2012070BD4B49AE
:1009C0002368B0FBF1F15E6826F03F060E435E60DF
:1009D0006368934206D94FF4967359434FF47A7380
:1009E000B1FBF3F12368491C1E6A26F03F06314330
:1009F00019626168914210D84900401EB0FBF1F2C3
:100A0000521CC2F30B02042A01D2042022E0B0FBE4
:100A1000F1F0401CC0F30B001CE0A368F3B301EB42
:100A2000C10202EB0116421EB2FBF6F2521C42F466
:100A30008042120549D093B301EBC10202EB0111D0
:100A4000401EB0FBF1F0401CC0F30B0040F48040AE
:100A500040F400402168CA694CF6FF739A43104382
:100A6000C861D4E90701084321680A6822F0C0027E
:100A700010430860D4E9030101432068826848F20A
:100A8000FF339A4311438160D4E90501084321688B
:100A9000CA6822F0FF021043C86001E00EE016E0D1
:100AA0002068016841F0010101602564202084F87C
:100AB0003D00256384F83E50002070BD01EB4106E7
:100AC000421EB2FBF6F2521CB3E70120C2E701EB73
:100AD0004101401EB0FBF1F0401CC0F30B00B7E732
:100AE000A086010080841E0000093D0040420F00E6
:100AF0002DE9FF4F83B09A46DDE9119793460446EE
:100B0000DDF84080FFF734FF054694F83D002028CB
:100B10006FD1192301227B492046009501F024F86A
:100B20000028F5D194F83C00012862D0012084F817
:100B30003C0020680168C90703D1016841F0010148
:100B400001602168086820F400600860222084F8B1
:100B50003D00402084F83E0000262664C4F824802E
:100B6000A4F82A90608D20856748E062CDE9007581
:100B700053465A462046049900F013FF00287DD1C1
:100B8000208DDFF8888168B1012814D0022820D098
:100B90002068016841F480610160206841698069D2
:100BA0000090A0E02068416981690091016841F4EA
:100BB0000071016097E02068016821F480610160A4
:100BC00072B62068416981690091016841F4007141
:100BD0000CE02168086840F40060086072B6206884
:100BE000416981690091016821F48061016062B608
:100BF00079E084E003284FD801280BD002283B4637
:100C00004FF000024146204600950ED000F0ACFFA8
:100C1000A0BB0FE02A463946204601F024F868BB05
:100C200020680069616A087054E000F09DFF28BBED
:100C300072B61AE02068016821F48061016072B622
:100C400020680069616A0870606A401C6062208DDB
:100C5000401E2085608D401E60853B460022414637
:100C60002046009500F080FF40B92068016841F4FB
:100C70000071016020680069616A00E012E008709C
:100C8000606A401C6062218D491E2185618D491E6C
:100C9000618562B621681BE02A463946204600F08D
:100CA000E2FF18B1012007B0BDE8F08F20680069AD
:100CB000616A0870606A401C6062218D491E21854E
:100CC000618D491E618521684A69D24352070AD461
:100CD00009690170606A401C6062208D401E208599
:100CE000608D401E6085208D002883D1202084F8EF
:100CF0003D0084F83E6084F83C600020D3E7022089
:100D0000D1E70000020010000000FFFF0400010016
:100D10002DE9FF4F83B09A46DDE9119793460446CB
:100D2000DDF84080FFF724FE054694F83D002028BA
:100D30007FD11923012240492046009500F014FF7D
:100D4000002876D194F83C00012872D0012084F864
:100D50003C0020680168C90703D1016841F0010126
:100D600001602068016821F400610160212084F89D
:100D70003D00402084F83E0000262664C4F824800C
:100D8000A4F82A90608D20852C48E062CDE900759A
:100D900053465A462046049900F076FE70B930E07A
:100DA0002A463946204600F091FF58B1206C0428AD
:100DB00004D12068016841F400710160012007B08E
:100DC000BDE8F08F606A216800780861606A401CA5
:100DD0006062218D491E89B22185628D521E628515
:100DE00022685369DB435B070BD469B1007810615B
:100DF000606A401C6062208D401E2085608D401E10
:100E00006085208D0028CBD12A463946204600F047
:100E100085FE0028CAD154F83D0B016841F40071E9
:100E20000160202004F81E09E67766770020C6E7F7
:100E3000FFE70220C3E70000020010000000FFFFF0
:100E400010B586B0002100910191029103910068D4
:100E50000F4988421AD10F4CA06940F00800A061E8
:100E6000A069694600F008000490C020009012209C
:100E70000190032003900848FFF784FCE06940F4E8
:100E80000010E061E06900F40010049006B010BDAD
:100E90000054004000100240000C014002488168EC
:100EA000027811448160704700000020074810B5A7
:100EB000016841F010010160032000F075F8002086
:100EC00000F006F800F024F8002010BD00200240D9
:100ED00070B50D4D04464FF47A712878B1FBF0F0EF
:100EE0000A490968B1FBF0F000F0ECFA48B9102C9F
:100EF00007D200222146501E00F036F800206C6018
:100F000070BD012070BD0000000000200C0000201A
:100F10000C4808B5816941F001018161816901F0E6
:100F200001010091C16941F08051C161C06900F0C7
:100F3000805000900448416821F0E06141F0007168
:100F4000416008BD0010024000000140002809DB9C
:100F500000F01F02012191404009800000F1E020D3
:100F6000C0F8001170470000F0B40E4B1B680C462F
:100F7000C3F30223C3F10705042D00D90425191D6D
:100F8000072901D2002300E0DB1E012606FA05F145
:100F9000491E214099409E40761E16403143F0BCC8
:100FA00001F09EB80CED00E0064900F00702086869
:100FB0004FF6FF03184040EA0220034A104308603E
:100FC000704700000CED00E00000FA052DE9F04745
:100FD0000F46050061D0434E306800F00700B8426C
:100FE00009D2306820F0070038433060306800F0E4
:100FF0000700B84251D128683B4C810712D5400701
:1010000003D5606840F4E06060602878000703D58D
:10101000606840F4605060606068A96820F0F0008B
:10102000084360602878C00728D06868012810D07D
:101030002168022810D0890700292EDA616821F082
:10104000030101436160FFF793FC804641F2883958
:101050000DE021688903EFE78901EDE7FFF788FCE0
:10106000A0EB0801494502D90320BDE8F08760687C
:10107000696800F00C00B0EB810FEFD1306800F030
:101080000700B8420BD9306820F0070038433060C1
:10109000306800F00700B84201D00120E5E7287869
:1010A000400705D56068E96820F4E06008436060A7
:1010B0002878000706D56068296920F4605040EA66
:1010C000C100606000F038F86168084AC1F303119C
:1010D000515CC8400649086006480068FFF7F8FE02
:1010E0000020C2E700200240001002403434000813
:1010F0000C000020040000200448054900684968ED
:10110000044AC1F30221515CC84070470C00002022
:10111000001002404434000804480549006849684A
:10112000044AC1F3C221515CC84070470C00002042
:10113000001002404434000812A185B00FC98DE8A8
:101140000F0014A0144A006804905168134801F07D
:101150000C03042B10D0082B0ED1C1F38343C90319
:101160001DF803000AD5516804AAC1F34041515C3F
:101170000A4A5043B0FBF1F005B0704708494843B4
:10118000FAE7000002030405060708090A0B0C0D24
:101190000E0F1010010200000010024000127A0031
:1011A00000093D002DE9F84F040070D02078C04DB3
:1011B000C00749D06868C0F38100012807D068687B
:1011C000C0F38100022809D16868C00306D52868E9
:1011D000800339D560680028E7D035E06068B0F555
:1011E000803F0BD010B1B0F5A02F11D0286820F4AB
:1011F00080302860286820F4802002E0286840F4CD
:1012000080302860606890B1FFF7B2FB06460AE0C4
:10121000286840F480202860F0E700BFFFF7A8FBB3
:10122000801B642873D828688003F7D50CE0FFF78B
:101230009FFB064605E000BFFFF79AFB801B642872
:10124000F0D828688003F7D420789A4E80074FF0B2
:1012500001094FF0000839D5686810F00C0F07D06D
:101260006868C0F38100022809D16868C00306D409
:101270002868800714D52069012808D110E020696A
:10128000B0B1C6F80090FFF773FB074605E00AE12E
:10129000FFF76EFBC01B0228C4D828688007F7D56B
:1012A0002868616920F0F80040EAC10028600DE07C
:1012B000C6F80080FFF75CFB074604E0FFF758FB29
:1012C000C01B022823D828688007F7D4207800079D
:1012D0002CD57948A169D9B1C0F80090FFF748FB37
:1012E000074604E0FFF744FBC01B02280FD8686ADA
:1012F0008007F7D571484FF4FA510068B0FBF1F060
:10130000009000BF0098411E0091FAD20EE080E0EC
:10131000C0F80080FFF72CFB074604E0FFF728FB2E
:10132000C01B022875D8686A8007F7D42078400768
:1013300060D5E8690027C00008D4E86940F0805013
:10134000E861E869012700F0805000905C4801687E
:10135000C90513D40168834641F480710160FFF729
:1013600007FB824606E000BFFFF702FBA0EB0A0086
:1013700064284ED8DBF80000C005F5D5E0680128E8
:101380000AD008B1052813D0286A20F0010028628D
:10139000286A20F0040002E0286A40F00100286278
:1013A000E06841F2883B98B1FFF7E2FA82460BE031
:1013B000286A40F004002862EEE700BFFFF7D8FA81
:1013C000A0EB0A0159455AD8286A8007F6D50CE0E7
:1013D000FFF7CEFA824605E0FFF7CAFAA0EB0A0152
:1013E00059454CD8286A8007F6D41FB1E86920F027
:1013F0008050E861E06988B36968C1F3810102291E
:1014000044D00228C6F8608004D0FFF7B1FA044641
:1014100038E034E0FFF7ACFA074604E0FFF7A8FA3B
:10142000C01B02282BD828688001F7D4206AB0F5A9
:10143000803F05D16868A16820F4003008436860E7
:10144000D4E908010843696821F47411084368600D
:10145000C6F86090FFF78CFA044606E025E000BF6E
:10146000FFF786FA001B022809D828688001F7D503
:101470001BE000BFFFF77CFA001B022802D9032003
:10148000BDE8F88F28688001F4D40EE00128F7D079
:101490006868226A00F48031914204D1616A00F4E4
:1014A0007010884201D00120EAE70020E8E7000040
:1014B0000010024000004242800442420C00002022
:1014C0000070004010B5401EB0F1807F01D30120B4
:1014D00010BD4FF0E02460610F21601700F000FEA6
:1014E0000020A06107202061002010BD70477047D8
:1014F00070B590F83C20012A19D0012400F83C4F27
:101500000222427050F83C3C5A689D6822F07006F6
:101510000A684968324325F0800529435A6050F82B
:101520003C2C9160447000210170084670BD02207F
:1015300070BD10B5040003D094F83D0010B107E071
:10154000012010BD002084F83C00204600F00CF87B
:10155000022084F83D00211D206800F09DFC012040
:1015600084F83D00002010BD08B50068B0F1804F40
:1015700012D10A48C16941F00101C161C06900226C
:1015800000F00100009011461C20FFF7EDFCBDE8C3
:1015900008401C20FFF7DABC08BD00000010024024
:1015A00070B5044690F83C00012817D0012584F856
:1015B0003C50022084F83D002068826822F07702C7
:1015C00022F47F4282600868502830D00DDC202849
:1015D0004DD005DC98B310283BD148E0022070BD07
:1015E000302844D0402834D139E0602828D07028F1
:1015F00006D0B0F5805F2CD0B0F5005F29D10AE0AD
:10160000CB68D1E90121206800F07CFC206881686A
:1016100041F0770109E0CB68D1E90121206800F0B1
:1016200071FC2068816841F48041816011E0CA68E2
:101630004968206800F078FC5021206807E016E037
:10164000CA684968206800F080FC6021206800F0CA
:1016500063FC84F83D50002084F83C0070BDCA68EB
:101660004968206800F060FC40212068EFE72268AC
:1016700001461046EBE7704770B504460068016903
:101680004FF00005C943890715D4C168C9438907CC
:1016900011D4E91E0161012020772068806980074C
:1016A000204602D0FFF7E7FF04E000F098F820465C
:1016B00000F096F8257720680169C943490717D4D7
:1016C000C168C943490713D46FF0040101610220C6
:1016D00020772068806910F4407F204602D0FFF711
:1016E000CAFF04E000F07BF8204600F079F8257787
:1016F00020680169C943090716D4C168C9430907AD
:1017000012D46FF008010161042020772068C069BD
:101710008007204602D0FFF7AEFF04E000F05FF83C
:10172000204600F05DF8257720680169C943C906A5
:1017300017D4C168C943C90613D46FF01001016101
:10174000082020772068C06910F4407F204602D02E
:10175000FFF791FF04E000F042F8204600F040F867
:10176000257720680169C943C90708D1C168C94301
:10177000C90704D1891E0161204600F032F82068B3
:101780000169C943090609D4C168C943090605D4DA
:101790006FF0800101612046FFF7A8FE2068016913
:1017A000C943490609D4C168C943490605D46FF045
:1017B00040010161204600F015F820680169C94325
:1017C00089060BD4C168C943890607D46FF020018C
:1017D00001612046BDE87040FFF789BE70BD7047CB
:1017E00070477047704770B5040004D094F8390012
:1017F000002510B106E0012070BD84F83850204665
:1018000000F022F8242084F839002068C16821F40F
:101810000051C160204600F0ABFB2068016921F453
:10182000904101612068416921F02A0141612068ED
:10183000C16841F40051C160E563202084F839009B
:1018400084F83A00002070BD30B585B000240094C3
:1018500001940294039400681449884224D11448E6
:10186000816941F480418161816901F48041049181
:10187000816941F00401816180690E4D00F004002E
:1018800004904FF400700090022001900320039018
:1018900069462846FEF776FF2815CDE9000469461B
:1018A00028460294FEF76EFF05B030BD00380140B7
:1018B00000100240000801402DE9F843044690F86A
:1018C00039001F4616460D46202850D1A5B19EB1BD
:1018D00094F8380001284AD0012084F838004FF0ED
:1018E0000008C4F83C80212084F83900FFF740F854
:1018F000A6848146E68426E00120BDE8F883E08CDA
:10190000401EE084A0684B46B0F5805F4FF00002B7
:101910004FF080012046009703D000F085FBE8B926
:101920000DE000F081FBC8B928882168C0F30800E9
:101930004860206908B16D1C05E0AD1C03E021681A
:1019400015F8010B4860E08C0028D8D14B460022E6
:1019500040212046009700F067FB08B10320CCE748
:10196000202084F8390084F838800020C5E7022060
:10197000C3E7FEE701684A69D24352050FD46FF40A
:1019800080624A61002140F8301F20224273817337
:10199000026942F0040202610173012070470020D5
:1019A00070472DE9F84F0446006889460B9D016891
:1019B0009846174641F4806101602068016841F44F
:1019C0008071016000954FF0011A002251462046B7
:1019D0000A9B00F0C9F8002853D1216809F0FE00E5
:1019E00008610AF1010B2B46594620460A9A00F07D
:1019F000EFF8F0BB20684169806900902A462046D4
:101A00000A9900F063F940B1206C042839D12068AC
:101A1000016841F40071016033E0FEB2B8F1010FDA
:101A200009D02168380A08612A4620460A9900F040
:101A30004DF90028E8D1206806612A4620460A9917
:101A400000F044F90028DFD12068016841F480717A
:101A5000016000950022514620460A9B00F084F860
:101A600038B9216809F0FF0040F0010008612B46F9
:101A700000E006E0594620460A9A00F0A9F800283E
:101A800000D00120BDE8F88F2DE9F8430446006836
:101A90000D46DDE9089701689846164641F48071C5
:101AA00001604B4600224FF001112046009700F0E4
:101AB0005BF8E0B9216805F0FE0008613B464A4644
:101AC0001549204600F084F888B92068416980698A
:101AD00000903A464946204600F0F8F850B1206C94
:101AE000042804D12068016841F4007101600120DC
:101AF000BDE8F883F5B2B8F1010F09D02168300ACA
:101B000008613A464946204600F0E0F80028E6D150
:101B1000206805610020EBE70200010070B5164661
:101B20000D4604460DE02046FFF724FF08B10120D2
:101B300070BD681C05D0FEF71BFF801BA84207D8AC
:101B400035B120684069C0434007ECD4002070BD27
:101B5000002044F8300F20216173A073216941F007
:101B6000200121612073E2E72DE9F0471E469046EF
:101B70000D460446C1F30747DDF8209008E0701CCD
:101B800006D0FEF7F5FEA0EB0900B0420FD876B103
:101B90002068012F18D0806925EA00000004000C9D
:101BA00014D000214145EAD00020BDE8F087002094
:101BB00044F8300F20216173A073216941F02001A6
:101BC000216120730120F0E74069E5E70121E9E7A1
:101BD0002DE9F0479A4691460E46044600254FF0FF
:101BE0002008C1F3074725E020684069C04340054D
:101BF00014D42068016841F40071016021686FF419
:101C000080604861256384F83D8084F83E50206CF4
:101C100040F00400206484F83C501FE0B9F1FF3F1D
:101C200008D0FEF7A5FEA0EB0A0149450CD8B9F192
:101C3000000F09D02068012F13D0806926EA000028
:101C40000004000C0BD0CFE744F8305F84F80D801F
:101C5000A573206940F02000206125730120BDE8B4
:101C6000F0874069EAE72DE9F041002590460E46ED
:101C70000446202717E04069C043C0060CD454F83E
:101C8000301B6FF01000486144F810596777A57752
:101C9000206A2062257717E0FEF76AFEA0EB0800B5
:101CA000B04208D83EB120684169C9434906E2D430
:101CB0000020BDE8F08144F8305F6773A5732069A8
:101CC00040F02000206125730120F2E770B5164630
:101CD0000D4604460DE02046FFF74CFE08B10120FA
:101CE00070BD681C05D0FEF743FE801BA84207D8D4
:101CF00035B120684069C0430006ECD4002070BDB7
:101D0000002044F8300F20216173A073216941F055
:101D1000200121612073E2E770B586B000241C48E1
:101D20000094019402940394816941F0100181614F
:101D3000816901F010010491816941F02001816104
:101D4000816901F020010491816941F00401816100
:101D5000816901F004010491816941F00801816108
:101D600080690C4E00F008004FF4005504900022EA
:101D700029463046FEF7F6FD01200095CDE9010425
:101D80000220039069463046FEF7FCFC06B070BDA9
:101D9000001002400010014010B586B00024114828
:101DA000009401940294039404944FF080410594AC
:101DB000016048F6A041C0E90114C821C0E903143C
:101DC0008461FFF7B6FB4FF48050009069460548E8
:101DD000FFF7E6FB049404A902480594FFF788FB8B
:101DE00006B010BD68000020FEE7704770477047DE
:101DF000FFF754B830B58FB028216846FEF7A9F92F
:101E000014210AA8FEF7A5F901210804CDE9001064
:101E10000024029402250491CDE907504FF4E0100C
:101E200009906846FFF7BEF90F20CDE90A05680260
:101E3000CDE90C4002210AA80E94FFF7C7F80FB0B5
:101E400030BD00000D48016841F0010101604168AA
:101E50000B4A1140416001680A4A11400160016863
:101E600021F480210160416821F4FE0141604FF4BA
:101E70001F0181600449C0030860704700100240E0
:101E80000000FFF8FFFFF6FE08ED00E00148FFF755
:101E9000F3BB000068000020F0B50268164B174C39
:101EA000174D4FF08047984205D0B84203D0A0426A
:101EB00001D0A84203D122F070064A68324398420A
:101EC00005D0B84203D0A04201D0A84203D122F4E9
:101ED0004074CA6822434C6922F0800222430260A7
:101EE0008A68C2620A688262984201D10969016304
:101EF00001214161F0BD0000002C014000040040C0
:101F00000008004010B5846842EA032224F47F44AC
:101F10000A432243826010BD826822F070020A43A5
:101F200042F007018160704710B5036A046A24F02B
:101F300001040462846924F0F00444EA021423F0EA
:101F40000A020A438461026210BD10B5036A23F0DD
:101F5000100303628369046A23F4704343EA023284
:101F600024F0A00343EA01118261016210BD000068
:101F70002DE9F041044600680169E26821F440510E
:101F8000114301612169A068084361690843216820
:101F9000CA6841F20C639A430243CA6020684169EF
:101FA000A26921F44071114341611E4920686425F2
:101FB0003226884202D1FFF7AFF801E0FFF79CF824
:101FC00000EBC00101EB001160686FF018078000A2
:101FD000B1FBF0F2B2FBF5F2B1FBF0F37A4303EBA5
:101FE0008202B1FBF0F306EB0212B2FBF5F2B3FB97
:101FF000F5F302F0F00202EB0312B1FBF0F3B1FBD8
:10200000F0F0B0FBF5F0784303EB800006EB001036
:10201000B0FBF5F0216800F00F0010448860BDE8C7
:10202000F0810000003801402DE9F0419846174644
:102030000E460446069D1DE0681C1BD02DB1FEF720
:1020400097FCA0EB0800A84214D92068C16821F4CD
:10205000D071C1602068416921F0010141612020F7
:1020600084F8390084F83A00002084F8380003200E
:10207000BDE8F0812068006836EA000004D0002046
:10208000B842D9D00020F3E70120F9E7FEE70000CD
:102090000FB4084B10B504A902AA039800F0BEF8CB
:1020A000044602A9002000F019FA204610BC5DF891
:1020B00014FB0000DD240008490050EAC12018BFCD
:1020C00004204A0D18BF40F0010040F2FF72B2EB4D
:1020D000515F08BF40F00200012808BF052070478B
:1020E0000907090E002804DB00F1E02080F8001445
:1020F000704700F00F0000F1E02080F8141D7047D9
:102100002DE9F0414F1E00EBC7010446D1E9000163
:1021100015461E4637F006020DD02A463346FEF716
:10212000CAF87F1E04EBC703D3E90023FEF71CF8AF
:1021300037F00602F1D1022F25D0042F13D0062F3D
:1021400018BFBDE8F0812A463346FEF7B4F8D4E95B
:102150000A23FEF709F82A463346FEF7ACF8D4E91D
:102160000823FEF701F82A463346FEF7A4F8D4E91F
:102170000623FDF7F9FF2A463346FEF79CF8D4E91B
:102180000423FDF7F1FF2A463346FEF794F8D4E91D
:102190000223FDF7E9FF2A463346FEF78CF8D4E91F
:1021A0000023BDE8F041FDF7DFBF00000022134629
:1021B00010460149FEF7F1B80000F03F0122FEF79A
:1021C0003ABAFDF7D1BF0022134610461146FEF77A
:1021D000E4B840F2013200204FF0E041FEF72BBAA4
:1021E000024A00201107FEF726BA000001FDFFFF9A
:1021F00002E008C8121F08C1002AFAD170477047D0
:10220000002001E001C1121F002AFBD1704700002D
:102210000149086070470000100000202DE9FF4FC1
:102220008DB09B460F460446002606E025280BD0BD
:102230005A460F999047641C761C20780028F5D1E7
:1022400011B03046BDE8F08F0025A846012298491C
:1022500000E0054314F8013F203B02FA03F0084276
:10226000F7D120782E2817D114F8010F45F0040576
:102270002A280ED06FF02F022078A0F13001092912
:102280000AD808EB880102EB410100EB0108641C4D
:10229000F2E757F8048B641C20786C280DD004DC1E
:1022A0004C2812D06A2811D104E074280DD07A2865
:1022B0000CD10AE045F4001507E0617845F480157B
:1022C000814202D1641C05F58015641C2278692ABC
:1022D00045D008DC002AB3D0582A69D0632A10D030
:1022E000642A08D13BE0702A67D0732A13D0752A7C
:1022F0005CD0782A5CD010465A460F999047761CDD
:10230000D3E017F8040B8DF8000000208DF80100D1
:10231000E946012003E057F8049B4FF0FF306907BE
:102320004FF0000501D40AE06D1C45450DDA8542E9
:10233000FADB19F805100029F6D106E06D1C85427C
:10234000FCDB19F805100029F8D12E4404E019F837
:10235000010B5A460F9990476D1EF8D2A5E00A204E
:102360000021CDE90801C5F3025002280DD001CFAC
:10237000C117031E71F100030DDA4FF0000CD0EB12
:102380000C006CEB01012D2308E0FF1D27F007076F
:10239000F7E80201EDE72B0504D52B238DF8283053
:1023A00001233BE0EB0739D02023F7E70A2000E0C8
:1023B00010200021CDE9080107E01020002145F0A0
:1023C0000405CDE908014FF00808C5F302500228C2
:1023D0000FD001CF00214FF0000A2B071FD5702A24
:1023E0000DD0DDE908C38CF0100C5CEA030C0CD0B6
:1023F00015E0FF1D27F00707F7E80201EBE7402291
:102400008DF828204FF0010A0BE050EA010306D0B6
:1024100030238DF828308DF8292002239A46582A37
:1024200004D024A20DF120090B9209E026A2F9E7BD
:10243000DDE90823FEF750F80B9B9B5C09F8013D92
:1024400050EA0102F4D1ADEB090020300890680792
:1024500001D44FF001080899884502DDA8EB01007E
:1024600000E000208046002506E00AA85A46405DAC
:102470000F9990476D1C761C5545F6DB04E0302023
:102480005A460F999047761CB8F10001A8F101084F
:10249000F5DC05E019F8010B5A460F999047761CB8
:1024A0000899481E08900029F4DC641CC5E6000069
:1024B000092801003031323334353637383961621A
:1024C00063646566000000003031323334353637DE
:1024D0003839414243444546000000000A68531C15
:1024E0000B601070704700002DE9F84F04460D4650
:1024F00021F0004000917349814211DC7249884209
:1025000001DC06D12CB120462946BDE8F84FFFF783
:1025100055BE6E48002DCCBF6D496E49BDE8F88FA1
:102520006D49814211DD6D498142D8BF4FF0FF36C0
:102530006DDD20462946FFF7BFFD042808BFFFF7E1
:102540004FFE20462946BDE8F88F6549654F25F0C6
:102550000045814233DD6449814219DD002632465F
:102560004FF0804320462946FDF7FEFD80468A460F
:10257000012220462946FEF75EF800223B46FDF781
:1025800094FE42465346FDF708FF04460D463EE0E2
:1025900001260022BA463B4620462946FDF7E4FDC7
:1025A00080460F460022534620462946FDF77DFE11
:1025B00042463B46FDF7F1FE04460D4627E04B49F7
:1025C00081421BDDDFF828A1022600225346204667
:1025D0002946FDF770FE00223B46FDF7C5FD80460B
:1025E0000F460022534620462946FDF75EFE42462E
:1025F0003B46FDF7D2FE04460D4608E00326224680
:102600002B4600203B49FDF7C8FE04460D462246F6
:102610002B4610461946FDF74EFE8B468246024673
:102620000B46FDF748FE07460246334888460B46F0
:1026300006217844FFF764FD52465B46FDF73BFEFA
:1026400082462E488B463A46434605217844FFF79A
:1026500057FD3A464346FDF72EFE02460B46002E36
:10266000504659460CDAFDF77FFD22462B46FDF712
:1026700022FE01B022462B46BDE8F04FFDF718BE02
:10268000FDF772FD22462B46FDF715FE1C4A7A44E3
:1026900002EBC603D3E90023FDF707FE22462B46D3
:1026A000FDF703FE174A7A4402EBC603D3E9002381
:1026B000FDF7FEFD009A002AB8BF81F00041BDE899
:1026C000F88F0000000010440000F07F182D4454E3
:1026D000FB21F93FFB21F9BF0000DC3F0000203E59
:1026E0000000F33F0000F03F0000E63F00800340A1
:1026F0000000F83F0000F0BF820E0000400E000016
:10270000DE0D0000A60D000070B590B001254FF45D
:102710007A74282103A8FDF71CFD0DA8CDE900055A
:1027200000268DF8346002942B467522D02118487B
:10273000FEF7DEF99DF8340068280DD015A103A836
:10274000FFF7A6FC28224FF6FF7303A91A48FFF7EC
:10275000B3F8A000FEF704F801250EA8CDE90005A6
:102760008DF838602B466B22D02102940848FEF782
:10277000CFFA08208DF83C000FA8CDE90005012311
:102780001C22D02102940248FEF7C2FA10B070BD9C
:1027900014000020434F4E4E454354494F4E5F5462
:1027A0004F5F4144584C3334355F4552524F5221AC
:1027B0002121200D0A000000A8000020FEF776FB72
:1027C000FFF718FBFFF7A8FAFFF7E6FA1D481C49C8
:1027D000002401604FF4E131C0E901140C21C46010
:1027E000C0E904418461C461FEF7FDFF1548164944
:1027F000943801601549C0E901144FF48041C0E9E3
:10280000034144618461C4610462FEF7B7F8FFF7D5
:102810007BFF0F4D4FF40054012221462846FEF75E
:10282000A1F83220FDF79CFF002221462846FEF742
:1028300099F80520FDF794FF00F0F8FCECE70000A4
:1028400000380140A800002000540040A08601008C
:10285000001001402DE9F04D1D460C4698B017467A
:1028600021F0004123F00043002814BF4FF0010C79
:102870004FF0000C0CEB440CFE4A0CEB02064FEA46
:10288000620C66452BD33E0018BF012606EB4506B9
:102890001644F94A964222D3F84A53EA070C02D06A
:1028A000944205D148B918B000201146BDE8F08D1A
:1028B000002808BF4FF0000C01D04FF0010C0CEBCA
:1028C000440212F5001F0AD8002F14BF4FF0010C6C
:1028D0004FF0000C0CEB450212F5001F07D918B0A1
:1028E0003A462B462146BDE8F04DFFF76ABC002270
:1028F000DFF88CA3002CB8BF534526DADFF884C379
:102900006345A8BF022220DADFF870C39C451CDCB7
:10291000DFF874C30CEB235CBCF1140F08DDCCF1C1
:10292000340627FA06FC0CFA06F6BE420DD108E082
:102930005FB9CCF1140623FA06FC0CFA06F69E42A7
:1029400003D10CF00102C2F1020251EA000C19D1CC
:10295000002D17DA002C18BF022A01D0012A07D057
:102960000220FFF755FC18B0BDE8F04DFFF71EBC84
:102970000220FFF74DFCFFF719FC18B081F0004171
:10298000BDE8F08DB7F1000C6CD1534525D104F1B1
:10299000804212F5801201BF00280020B74918B00C
:1029A00008BFBDE8F08DB548884207DC002DA1BF07
:1029B0006046294618B0BDE8F08D07E0281E05DA0C
:1029C00080F0004118B06046BDE8F08DAF49794411
:1029D000D1E9000118B0BDE8F08DDFF8A0C2634571
:1029E00025D1002D1FDA19B1514512D1D8B909E00E
:1029F000002840F0EC82A24A214618B062F31E0182
:102A0000BDE8F08D0020214618B060F31E01BDE83E
:102A1000F08D08DA18B02346BDE8F04D02460020DC
:102A20006146FDF7BABC18B02146BDE8F08D5145AE
:102A300018DAB5F1804F0DD0A5F1005CBCF1FF5C58
:102A400010D1B4F1000C0DDB18B06146BDE8F04DBB
:102A500000F0CABC234618B00246BDE8F04D194646
:102A6000FDF729BC060024F0004C3BD1D9B15145FB
:102A700033D1002C06DD002DA1BF0020514618B037
:102A8000BDE8F08D002C01DD002D1BDB002C13DADE
:102A9000002D11DB012A4FF0000014BF78497C495A
:102AA00018B0BDE8F08D022A18BF002C0AD0012A08
:102AB00008D1002C06DA0AE0002CB8BF002D11DA8C
:102AC000012A04D0002018B00146BDE8F08D18B0EE
:102AD00000204FF00041BDE8F08DA1F14050B0F171
:102AE0007F601AD0012000EBE47050EA020421D08C
:102AF000624C521E4FF0000B104304BF4FF0000B0E
:102B0000644C654883427CDD644A654893421FDD1E
:102B1000884217DB002D25DB37E0002C00DA4AB1B4
:102B2000022A0CBF01204FF0FF3018B0BDE8F04D75
:102B3000FDF7A2BC0120FFF76BFB18B0BDE8F04D1C
:102B4000FFF741BB4D4A8A4202DC002D0ADC1CE043
:102B5000814202DA002D18DA04E0484B994220DD68
:102B6000002D12DD0220FFF753FBFFF732FB054675
:102B70000E460022534658462146FDF79CFB18B0EE
:102B800066F31E012846BDE8F08D0220FFF740FBEA
:102B9000FFF726FB0A46214618B062F31E01BDE886
:102BA000F08D002230466146FDF77FFB80460E46E1
:102BB0006FF00102FDF73FFD4FF05532394BFDF745
:102BC00077FB42463346FDF776FB0022364BFDF796
:102BD0006FFB824642463346049110461946FDF784
:102BE0006AFB5246049BFDF766FB8A4600904FF055
:102BF000C0422E4B40463146FDF75DFB2C4A2B4B25
:102C000000E027E0CDE9060151460098FDF753FBAF
:102C100082460191274A284B40463146FDF74BFB3F
:102C20005246019BFDF741FB82460B460246059149
:102C3000DDE90601FDF798FADDE90623002688465E
:102C40003046FDF732FB5246059BFDF731FB02464D
:102C500000F07EB90020B1F5801F07DA352230463A
:102C60006146FDF7E8FC06466FF0340000EB2150AA
:102C700024E00000FFFF1F00FFFF0F000000F03FF7
:102C80000000F07F0000404301FCFFFF9E0B0000AE
:102C90000000F0FF0000F0BF0000E0410000F04342
:102CA000FFFFEF3F5555D53F0000E03F4715F73F89
:102CB000FE822B6544DF5DF80BAE543EA0F2FF3080
:102CC0000190C1F3130040F07F6141F04051029147
:102CD000FE498842D8BF002004DDFD498142C8BFBB
:102CE000012001DD0D9008E000200D900198401CAE
:102CF00001900298A0F5801002900299F54878445E
:102D00000B910D9900EBC100D0E900230F933046E1
:102D10000A920B99FDF7C9FACDE90601DDE90A210E
:102D200030460F9BFDF720FA02460B460020EA4989
:102D3000FDF733FB059102460B460090DDE90601E5
:102D4000FDF7B9FA1490E5488A464FF00008784438
:102D50000299006812904FF0005040EA61010D980E
:102D60000F9B01EB804000F5002109910A9A12980F
:102D7000FDF79BFA32460B9BFDF79AFA4246534603
:102D8000FDF799FA0646029140465146099B129A70
:102D9000FDF791FADDE90623FDF78AFA3246029B38
:102DA000FDF783FA059B009AFDF785FA0091149AC6
:102DB0000490534610461946FDF77DFA0646024632
:102DC000C7480B46029106217844FFF799F9CDE9EF
:102DD0000510029B324610461946FDF76CFADDE9F4
:102DE0000532FDF768FA05910646534640461946F6
:102DF000149AFDF7B9F9009B049AFDF75CFA324684
:102E0000059BFDF7B1F9CDE9051042465346104642
:102E10001946FDF750FA0022B24B02910A90FDF7D5
:102E2000A3F9DDE90532FDF79FF90E464246AD4BA9
:102E30004046FDF73AFA029B0A9AFDF736FADDE9B9
:102E40000532FDF735FA424602910A9033461046A4
:102E50005146FDF730FACDE906015346149A02991E
:102E60000A98FDF728FA8A460290334642460099AE
:102E70000498FDF720FA5346029AFDF775F9824649
:102E80000B4602460591DDE90601FDF76DF9DDE926
:102E90000623002088460646FDF707FA5246059BA2
:102EA000FDF706FA824609914FF060428E4B30469C
:102EB0004146FDF700FA049006918C4A8A4B504631
:102EC0000999FDF7F8F982460291894A894B304603
:102ED0004146FDF7F0F95246029BFDF745F9864B56
:102EE0007B440D9A03EBC203D3E90023FDF73CF9C1
:102EF0000E9007910198FDF7BFFA0591DDE90613E1
:102F000082460E9A0498FDF72FF97C4A7A440D9B6D
:102F100002EBC303D3E9002300930292FDF724F9E7
:102F20005246059BFDF720F900268846524630465A
:102F3000059BFDF7BAF9009B029AFDF7B6F9069BCF
:102F4000049AFDF7B2F9079B0E9AFDF7B1F9024614
:102F500000200B46029038462946FDF7ACF9824620
:102F600001912B4638461946029AFDF79EF93246E2
:102F70004346FDF7A0F95246019BFDF7F5F80746D9
:102F80008A463246434629460298FDF794F905469B
:102F90000E463A465346FDF7E7F8594A88469142AD
:102FA00021DBA8EB020353EA000210D12A46334684
:102FB000FDF77BF9CDE90401524A534B384651469F
:102FC000FDF7D2F8DDE90423FDF79EFB21D20220B4
:102FD000FFF71EF9FFF7FDF80A46214618B062F325
:102FE0001E01BDE8F08D494B28F000429A4210D3F3
:102FF000474A08EB020353EA00027FF4C6AD2A46B3
:103000003346FDF752F93A465346FDF77DFB7FF60E
:10301000BCAD0022019228F000403E493E4A01EB3F
:103020002051824223DA481C4FF4801121FA00F02B
:1030300040443A4AC0F30A517A44394BA1F2FF3175
:10304000CB4020EA0303C0F3130040F48010C1F129
:103050001401C84012680190B8F1000FBCBF404293
:10306000019028463146FDF720F905460E462A46CE
:10307000334638465146FDF777F84FF00008424690
:10308000284B40460591FDF716F9CDE90601264A81
:10309000264B40460599FDF70EF9009102902A460D
:1030A000334640460599FDF700F93A465346FDF789
:1030B000FFF81F4A1F4BFDF7FEF8009B029AFDF731
:1030C00053F80746884602460B4635E08E980300C3
:1030D0007AB60B00E60700000000F03F1E08000073
:1030E0004C0700000000084009C7EE3FFD033ADC32
:1030F000F5015B14E02F3EBE24060000E805000049
:1031000000009040FE822B654715973C00CC904014
:1031100000346F3F01FCFFFF0000E03F340500007A
:10312000FFFF0F00432EE63F396CA80C615C20BE08
:10313000EF39FAFE422EE63FDDE90601FDF714F80D
:10314000DDE9062305460E46FDF7AFF83A4643464D
:10315000FDF7AEF80F462A46334600901046194652
:10316000FDF7A9F8824602462E4888460B460521FF
:103170007844FEF7C5FF52464346FDF79CF82A46C1
:103180003346FDF795F880468A463B462846314649
:10319000009AFDF790F83B46009AFCF7E5FF069190
:1031A000009000224FF0804340465146FDF77DF8E5
:1031B0000F460C904246534628463146FDF77BF8B1
:1031C0003B460C9AFDF7E9F8069B009AFDF76DF86F
:1031D0002A463346FDF769F80022134BFDF768F8DD
:1031E000054601980E4601EB00510815002810DC39
:1031F00028463146019AFDF71EFAFEF75DFF0428C6
:1032000008BFFEF7EDFF28463146019AFDF713FA95
:1032100005460B4618B02A4658462146BDE8F04DF3
:10322000FDF749B8D40300000000F03F2DE9F04F4E
:103230009FB000201C901D904FF47A7206211CA8AC
:103240008DE8070001233B22D0215548FDF750FCB3
:10325000BDF8700040BA04B2BDF8720040BA0FFA6F
:1032600080FABDF8740040BA00B28146FDF704F957
:10327000064600224FF080430191FFF7EBFA074624
:1032800088465046FDF7F8F8054600224FF0804387
:103290000091FFF7DFFA3A464346FCF765FF00F07E
:1032A000A3F880460F466042FDF7E6F842463B46EB
:1032B000FDF773F8FFF718F9DFF8E8B03A4B5A4614
:1032C000FCF7F9FFFDF7E9F80FFA80F83046002225
:1032D0004FF080430199FFF7BDFA06460F4620469E
:1032E000FDF7CAF8044600224FF080430191FFF732
:1032F000B1FA3B463246FCF737FF00F075F8074657
:103300000E46CAF10000FDF7B7F83A463346FDF71E
:1033100044F8FFF7E9F85A46234BFCF7CCFFFDF7DA
:10332000BCF806B2284600224FF080430099FFF710
:1033300091FA07460D46204600224FF0804301993E
:10334000FFF788FA3A462B46FCF70EFF00F04CF8E0
:1033500005460C46C9F10000FDF78EF82A462346C3
:10336000FDF71BF8FFF7C0F85A460F4BFCF7A3FF19
:10337000FDF793F804B2642103A8FCF7EAFE334694
:1033800042460AA103A80094FEF782FE64224FF68B
:10339000FF7303A91348FEF78FFA1FB0BDE8F08F43
:1033A00014000020F6285C8FC2A54C40585F616372
:1033B000635F76616C75653A2025642C20595F61E6
:1033C00063635F76616C75653A2025642C205A5FD3
:1033D0006163635F76616C75653A2025642C0D0A24
:1033E00000000000A80000202DE9F04106460F462D
:1033F000FDF738F9041E0D4618BF0120284320F0C0
:103400000040C0F17F6000F1E040C00F0ED0301CE2
:1034100018BF0120384320F00040C0F17F6000F168
:10342000E040C00F04BF0120FEF7F2FE204629460F
:10343000BDE8F0810000000000000000010203046C
:103440000607080900000000010203040000000054
:103450004FBB610567ACDD3F182D4454FB21E93FAC
:103460009BF681D20B73EF3F182D4454FB21F93F9B
:10347000E2652F227F2B7A3C075C143326A6813C21
:10348000BDCBF07A8807703C075C143326A6913CCC
:10349000C4EB98999999C9BF711623FEC671BCBF38
:1034A0006D9A74AFF2B0B3BF9AFDDE522DDEADBFA0
:1034B0002F6C6A2C44B4A2BF0D5555555555D53FB8
:1034C000FF8300922449C23F6E204CC5CD45B73FD3
:1034D000513DD0A0660DB13FEB0D76244B7BA93F4B
:1034E00011DA22E33AAD903F000000000000F03F07
:1034F000000000000000F83F000000000000000095
:103500000000004003B8E23F00000000000000009F
:1035100006D0CF43EBFD4C3E033333333333E33F2D
:10352000FFAB6FDBB66DDB3F4D268F515555D53F59
:1035300001411DA96074D13F65DBC9934A86CD3F27
:10354000EF4E454A287ECA3F3E5555555555C53F15
:1035500093BDBE166CC166BF2CDE25AF6A56113F07
:10356000F16BD2C541BDBBBED0A4BE726937663E09
:103570000000000000000000983500080000002056
:1035800014000000F0210008AC35000814000020F1
:10359000D404000000220008010000001000000018
:0C35A000000000000024F4000000000007
:04000005080000ED02
:00000001FF
