:020000040800F2
:100000005805002001010008D3170008F712000866
:10001000D11700080F020008751A00080000000040
:10002000000000000000000000000000D7170008DA
:100030001102000800000000D5170008D9170008B9
:100040001B0100081B0100081B0100081B01000820
:100050001B0100081B0100081B0100081B01000810
:100060001B0100081B0100081B0100081B01000800
:100070001B0100081B0100081B0100081B010008F0
:100080001B0100081B0100081B0100081B010008E0
:100090001B0100081B0100081B0100081B010008D0
:1000A0001B0100081B0100081B0100081B010008C0
:1000B000751800081B0100081B0100081B0100083F
:1000C0001B0100081B0100081B0100081B010008A0
:1000D0001B0100081B0100081B0100081B01000890
:1000E0001B0100081B0100081B010008DFF80CD0F1
:1000F00000F06CF800480047AD1D000858050020CE
:100100000648804706480047FEE7FEE7FEE7FEE7B1
:10011000FEE7FEE7FEE7FEE7FEE7FEE72D18000834
:10012000ED000008202A04DB203A21FA02F0002129
:10013000704721FA02F3D040C2F1200291400843F7
:1001400019467047D2B201E000F8012B491EFBD2DC
:1001500070470022F6E710B513460A4604461946D2
:10016000FFF7F0FF204610BD2DE9F05F05460020A7
:1001700092469B4688460646814640241BE0284618
:10018000414647462246FFF7CDFF53465A46C01A1E
:10019000914110D311461846224600F029F82D1A35
:1001A00067EB01084F4622460120002100F020F8AD
:1001B00017EB00094E41201EA4F10104DFDC484684
:1001C00031462A464346BDE8F09F0000064C074DE5
:1001D00006E0E06840F0010394E807009847103417
:1001E000AC42F6D3FFF786FF941E0008B41E000849
:1001F000202A04DB203A00FA02F1002070479140E7
:10020000C2F1200320FA03F3194390407047FEE740
:100210007047000070B5044600F004F90546601C04
:1002200002D004480078044400F0FCF8401BA042CF
:10023000FAD370BD100000202DE9F84FDFF8B89117
:10024000002409F1040A0AF1040B23460F270BF1DD
:10025000040EC9E00125A5402A40AA427DD1674E7F
:10026000D1F804C0ACEB0608B44532D014DCBCF1C4
:10027000030F3AD009DCBCF1000F2AD0BCF1010F0A
:100280001CD0BCF1020F31D11DE0BCF1110F17D011
:10029000BCF1120F2AD119E0B8F5881F19D006DC7D
:1002A000B8F5803F15D0B8F5801F1FD111E0B8F523
:1002B000001F0ED0B8F5041F18D10AE0CB6815E076
:1002C000CB681B1D12E0CB6808330FE0CB680C3302
:1002D0000CE08B682BB1012B4FF0080303D0456174
:1002E00004E0042302E0056100E00023FF2A01D8B6
:1002F000064601E000F104064FEA840501D9A5F1A4
:100300002005D6F8008007FA05FC28EA0C0803FA55
:1003100005F548EA0508C6F800804D68ED0062D58D
:10032000374DAE6946F00106AE61AD6924F00306B3
:1003300005F001050095334D06EB050CDCF808507F
:10034000A607360F07FA06F825EA0805DFF8B88091
:10035000404503D14FF0000817E044E0DFF8AC80DF
:10036000404502D14FF001080FE0DFF8A48040457E
:1003700002D14FF0020808E0DFF89880404502D132
:100380004FF0030801E04FF0040808FA06F848EAC5
:100390000508CCF808804D68D9F80060ED034D469B
:1003A00001D5164300E096432E604D68DAF80060F0
:1003B000AD03554601D5164300E096432E604D68C7
:1003C000DBF80060ED025D4601D5164300E0964380
:1003D0002E604D68DEF80060AD02754601D516430B
:1003E00000E096432E60641C0D682A46E5407FF4C9
:1003F00031AFBDE8F88F000000040140000011108B
:10040000001002400000014000080140000C0140C3
:1004100000100140001401400AB101617047090455
:10042000FBE70000014880687047000010000020D2
:1004300070B504001BD094F83D00002520B984F865
:100440003C50204600F0BEF9242084F83D0020688E
:10045000016821F00101016000F010FB4D4A616864
:10046000914201D84C4900E04C49884201D2012018
:1004700070BD4B492368B0FBF1F15E6826F03F0682
:100480000E435E606368934206D94FF496735943F6
:100490004FF47A73B1FBF3F12368491C1E6A26F00E
:1004A0003F06314319626168914210D84900401EED
:1004B000B0FBF1F2521CC2F30B02042A01D2042059
:1004C00022E0B0FBF1F0401CC0F30B001CE0A3687D
:1004D000F3B301EBC10202EB0116421EB2FBF6F2CE
:1004E000521C42F48042120549D093B301EBC10281
:1004F00002EB0111401EB0FBF1F0401CC0F30B00F9
:1005000040F4804040F400402168CA694CF6FF7313
:100510009A431043C861D4E90701084321680A6877
:1005200022F0C00210430860D4E9030101432068AF
:10053000826848F2FF339A4311438160D4E9050190
:1005400008432168CA6822F0FF021043C86001E036
:100550000EE016E02068016841F0010101602564A9
:10056000202084F83D00256384F83E50002070BDB3
:1005700001EB4106421EB2FBF6F2521CB3E701202A
:10058000C2E701EB4101401EB0FBF1F0401CC0F39B
:100590000B00B7E7A086010080841E0000093D0023
:1005A00040420F002DE9FF4F83B09A46DDE91197D5
:1005B00093460446DDF84080FFF734FF054694F883
:1005C0003D0020286FD1192301227B492046009548
:1005D00000F01CFF0028F5D194F83C00012862D0FF
:1005E000012084F83C0020680168C90703D1016834
:1005F00041F0010101602168086820F40060086092
:10060000222084F83D00402084F83E000026266425
:10061000C4F82480A4F82A90608D20856748E062A1
:10062000CDE9007553465A462046049900F07BFEFA
:1006300000287DD1208DDFF8888168B1012814D091
:10064000022820D02068016841F4806101602068A0
:10065000416980690090A0E020684169816900914A
:10066000016841F40071016097E02068016821F49D
:100670008061016072B620684169816900910168FA
:1006800041F400710CE02168086840F400600860E3
:1006900072B62068416981690091016821F4806126
:1006A000016062B679E084E003284FD801280BD0BE
:1006B00002283B464FF000024146204600950ED0EE
:1006C00000F0A4FEA0BB0FE02A463946204600F009
:1006D0001CFF68BB20680069616A087054E000F084
:1006E00095FE28BB72B61AE02068016821F480618B
:1006F000016072B620680069616A0870606A401C17
:100700006062208D401E2085608D401E60853B46C6
:10071000002241462046009500F078FE40B920684E
:10072000016841F40071016020680069616A00E0BD
:1007300012E00870606A401C6062218D491E2185AC
:10074000618D491E618562B621681BE02A463946E3
:10075000204600F0DAFE18B1012007B0BDE8F08FA6
:1007600020680069616A0870606A401C6062218DBF
:10077000491E2185618D491E618521684A69D243E0
:1007800052070AD409690170606A401C6062208DBA
:10079000401E2085608D401E6085208D002883D1FD
:1007A000202084F83D0084F83E6084F83C600020FE
:1007B000D3E70220D1E70000020010000000FFFF95
:1007C0000400010010B586B0002100910191029152
:1007D000039100680F4988421AD10F4CA06940F07C
:1007E0000800A061A069694600F008000490C020DC
:1007F000009012200190032003900848FFF71CFD91
:10080000E06940F40010E061E06900F40010049039
:1008100006B010BD0054004000100240000C014022
:1008200002488168027811448160704710000020FE
:10083000074810B5016841F010010160032000F085
:1008400075F8002000F006F800F024F8002010BD34
:100850000020024070B50D4D04464FF47A7128789F
:10086000B1FBF0F00A490968B1FBF0F000F0ECFAD6
:1008700048B9102C07D200222146501E00F036F84D
:1008800000206C6070BD012070BD000010000020D1
:100890001C0000200C4808B5816941F0010181610C
:1008A000816901F001010091C16941F08051C1618C
:1008B000C06900F0805000900448416821F0E06178
:1008C00041F00071416008BD00100240000001408D
:1008D000002809DB00F01F0201219140400980003F
:1008E00000F1E020C0F8001170470000F0B40E4B9A
:1008F0001B680C46C3F30223C3F10705042D00D97E
:100900000425191D072901D2002300E0DB1E012662
:1009100006FA05F1491E214099409E40761E164078
:100920003143F0BC01F0BCB80CED00E0064900F02A
:10093000070208684FF6FF03184040EA0220034A06
:1009400010430860704700000CED00E00000FA055D
:100950002DE9F0470F46050061D0434E306800F0A6
:100960000700B84209D2306820F0070038433060F1
:10097000306800F00700B84251D128683B4C81072D
:1009800012D5400703D5606840F4E06060602878C5
:10099000000703D5606840F4605060606068A96833
:1009A00020F0F000084360602878C00728D068680D
:1009B000012810D02168022810D0890700292EDADA
:1009C000616821F0030101436160FFF72BFD804660
:1009D00041F288390DE021688903EFE78901EDE7ED
:1009E000FFF720FDA0EB0801494502D90320BDE82F
:1009F000F0876068696800F00C00B0EB810FEFD100
:100A0000306800F00700B8420BD9306820F00700CA
:100A100038433060306800F00700B84201D0012050
:100A2000E5E72878400705D56068E96820F4E060CC
:100A3000084360602878000706D56068296920F4BB
:100A4000605040EAC100606000F038F86168084A10
:100A5000C1F30311515CC8400649086006480068AC
:100A6000FFF7F8FE0020C2E700200240001002401D
:100A70007C1E00081C0000201400002004480549CA
:100A800000684968044AC1F30221515CC8407047BC
:100A90001C000020001002408C1E0008044805497C
:100AA00000684968044AC1F3C221515CC8407047DC
:100AB0001C000020001002408C1E000812A185B00E
:100AC0000FC98DE80F0014A0144A00680490516803
:100AD000134801F00C03042B10D0082B0ED1C1F3E6
:100AE0008343C9031DF803000AD5516804AAC1F362
:100AF0004041515C0A4A5043B0FBF1F005B07047E9
:100B000008494843FAE700000203040506070809FC
:100B10000A0B0C0D0E0F1010010200000010024015
:100B200000127A0000093D002DE9F84F040070D052
:100B30002078C04DC00749D06868C0F38100012803
:100B400007D06868C0F38100022809D16868C00333
:100B500006D52868800339D560680028E7D035E0DD
:100B60006068B0F5803F0BD010B1B0F5A02F11D068
:100B7000286820F480302860286820F4802002E073
:100B8000286840F480302860606890B1FFF74AFC24
:100B900006460AE0286840F480202860F0E700BF9D
:100BA000FFF740FC801B642873D828688003F7D5C2
:100BB0000CE0FFF737FC064605E000BFFFF732FC0C
:100BC000801B6428F0D828688003F7D420789A4ED8
:100BD00080074FF001094FF0000839D5686810F020
:100BE0000C0F07D06868C0F38100022809D168683B
:100BF000C00306D42868800714D52069012808D1CD
:100C000010E02069B0B1C6F80090FFF70BFC074672
:100C100005E00AE1FFF706FCC01B0228C4D82868DB
:100C20008007F7D52868616920F0F80040EAC10024
:100C300028600DE0C6F80080FFF7F4FB074604E0EB
:100C4000FFF7F0FBC01B022823D828688007F7D4E1
:100C5000207800072CD57948A169D9B1C0F8009057
:100C6000FFF7E0FB074604E0FFF7DCFBC01B0228B0
:100C70000FD8686A8007F7D571484FF4FA510068B9
:100C8000B0FBF1F0009000BF0098411E0091FAD235
:100C90000EE080E0C0F80080FFF7C4FB074604E0E8
:100CA000FFF7C0FBC01B022875D8686A8007F7D41D
:100CB0002078400760D5E8690027C00008D4E869BB
:100CC00040F08050E861E869012700F08050009012
:100CD0005C480168C90513D40168834641F48071FA
:100CE0000160FFF79FFB824606E000BFFFF79AFB1B
:100CF000A0EB0A0064284ED8DBF80000C005F5D54B
:100D0000E06801280AD008B1052813D0286A20F02D
:100D100001002862286A20F0040002E0286A40F0FE
:100D200001002862E06841F2883B98B1FFF77AFB46
:100D300082460BE0286A40F004002862EEE700BF1C
:100D4000FFF770FBA0EB0A0159455AD8286A8007C3
:100D5000F6D50CE0FFF766FB824605E0FFF762FB85
:100D6000A0EB0A0159454CD8286A8007F6D41FB178
:100D7000E86920F08050E861E06988B36968C1F3F0
:100D80008101022944D00228C6F8608004D0FFF710
:100D900049FB044638E034E0FFF744FB074604E033
:100DA000FFF740FBC01B02282BD828688001F7D42E
:100DB000206AB0F5803F05D16868A16820F4003052
:100DC00008436860D4E908010843696821F4741194
:100DD00008436860C6F86090FFF724FB044606E00D
:100DE00025E000BFFFF71EFB001B022809D828687A
:100DF0008001F7D51BE000BFFFF714FB001B0228A2
:100E000002D90320BDE8F88F28688001F4D40EE0F1
:100E10000128F7D06868226A00F48031914204D139
:100E2000616A00F47010884201D00120EAE70020D6
:100E3000E8E7000000100240000042428004424205
:100E40001C0000200070004010B5401EB0F1807FF3
:100E500001D3012010BD4FF0E02460610F21601725
:100E600000F01EFE0020A06107202061002010BDC0
:100E70007047704770B590F83C20012A19D00124C2
:100E800000F83C4F0222427050F83C3C5A689D6882
:100E900022F070060A684968324325F0800529432C
:100EA0005A6050F83C2C9160447000210170084653
:100EB00070BD022070BD10B5040003D094F83D0051
:100EC00010B107E0012010BD002084F83C0020464E
:100ED00000F00CF8022084F83D00211D206800F08D
:100EE000CFFC012084F83D00002010BD08B500684B
:100EF000B0F1804F12D10A48C16941F00101C161CE
:100F0000C069002200F00100009011461C20FFF78C
:100F1000EDFCBDE808401C20FFF7DABC08BD00006E
:100F20000010024070B5044690F83C00012817D02C
:100F3000012584F83C50022084F83D002068826836
:100F400022F0770222F47F4282600868502830D075
:100F50000DDC20284DD005DC98B310283BD148E0AB
:100F6000022070BD302844D0402834D139E06028B8
:100F700028D0702806D0B0F5805F2CD0B0F5005F87
:100F800029D10AE0CB68D1E90121206800F0AEFC4C
:100F90002068816841F0770109E0CB68D1E901213F
:100FA000206800F0A3FC2068816841F480418160E2
:100FB00011E0CA684968206800F0AAFC5021206846
:100FC00007E016E0CA684968206800F0B2FC6021BA
:100FD000206800F095FC84F83D50002084F83C0027
:100FE00070BDCA684968206800F092FC4021206802
:100FF000EFE7226801461046EBE7704770B50446FC
:10100000006801694FF00005C943890715D4C1681C
:10101000C943890711D4E91E0161012020772068A6
:1010200080698007204602D0FFF7E7FF04E000F068
:1010300098F8204600F096F8257720680169C943A2
:10104000490717D4C168C943490713D46FF0040195
:101050000161022020772068806910F4407F2046DB
:1010600002D0FFF7CAFF04E000F07BF8204600F052
:1010700079F8257720680169C943090716D4C16842
:10108000C943090712D46FF00801016104202077D9
:101090002068C0698007204602D0FFF7AEFF04E059
:1010A00000F05FF8204600F05DF8257720680169C0
:1010B000C943C90617D4C168C943C90613D46FF020
:1010C00010010161082020772068C06910F4407F7A
:1010D000204602D0FFF791FF04E000F042F82046DE
:1010E00000F040F8257720680169C943C90708D195
:1010F000C168C943C90704D1891E0161204600F0B7
:1011000032F820680169C943090609D4C168C94396
:10111000090605D46FF0800101612046FFF7A8FEA3
:1011200020680169C943490609D4C168C943490611
:1011300005D46FF040010161204600F015F82068E9
:101140000169C94389060BD4C168C943890607D41C
:101150006FF0200101612046BDE87040FFF789BEB5
:1011600070BD704770477047704770B5040004D079
:1011700094F83900002510B106E0012070BD84F814
:101180003850204600F022F8242084F839002068E6
:10119000C16821F40051C160204600F0DDFB2068E9
:1011A000016921F4904101612068416921F02A011F
:1011B00041612068C16841F40051C160E5632020AD
:1011C00084F8390084F83A00002070BD30B585B04D
:1011D0000024009401940294039400681449884206
:1011E00024D11448816941F480418161816901F40D
:1011F00080410491816941F00401816180690E4D53
:1012000000F0040004904FF4007000900220019060
:101210000320039069462846FFF70EF82815CDE90C
:101220000004694628460294FFF706F805B030BD71
:101230000038014000100240000801402DE9F84349
:10124000044690F839001F4616460D46202850D116
:10125000A5B19EB194F8380001284AD0012084F845
:1012600038004FF00008C4F83C80212084F8390091
:10127000FFF7D8F8A6848146E68426E00120BDE881
:10128000F883E08C401EE084A0684B46B0F5805F98
:101290004FF000024FF080012046009703D000F08D
:1012A000B7FBE8B90DE000F0B3FBC8B928882168A6
:1012B000C0F308004860206908B16D1C05E0AD1C52
:1012C00003E0216815F8010B4860E08C0028D8D1B4
:1012D0004B46002240212046009700F099FB08B1C0
:1012E0000320CCE7202084F8390084F838800020DF
:1012F000C5E70220C3E7FEE701684A69D243520509
:101300000FD46FF480624A61002140F8301F202220
:1013100042738173026942F0040202610173012089
:101320007047002070472DE9F84F04460068894651
:101330000B9D01689846174641F480610160206862
:10134000016841F48071016000954FF0011A00229C
:10135000514620460A9B00F059F8002853D12168D5
:1013600009F0FE0008610AF1010B2B4659462046A0
:101370000A9A00F07FF8F0BB20684169806900900C
:101380002A4620460A9900F0F3F840B1206C042860
:1013900039D12068016841F40071016033E0FEB288
:1013A000B8F1010F09D02168380A08612A462046A1
:1013B0000A9900F0DDF80028E8D1206806612A4685
:1013C00020460A9900F0D4F80028DFD1206801688F
:1013D00041F48071016000950022514620460A9B2D
:1013E00000F014F838B9216809F0FF0040F001005E
:1013F00008612B4600E006E0594620460A9A00F0B4
:1014000039F8002800D00120BDE8F88F2DE9F04719
:101410001E4690460D460446C1F30747DDF820906E
:1014200008E0701C06D0FEF7FDFFA0EB0900B042FB
:101430000FD876B12068012F18D0806925EA000006
:101440000004000C14D000214145EAD00020BDE882
:10145000F087002044F8300F20216173A0732169C8
:1014600041F02001216120730120F0E74069E5E7A8
:101470000121E9E72DE9F0479A4691460E460446D8
:1014800000254FF02008C1F3074725E02068406998
:10149000C043400514D42068016841F40071016024
:1014A00021686FF480604861256384F83D8084F88A
:1014B0003E50206C40F00400206484F83C501FE053
:1014C000B9F1FF3F08D0FEF7ADFFA0EB0A01494597
:1014D0000CD8B9F1000F09D02068012F13D0806912
:1014E00026EA00000004000C0BD0CFE744F8305F80
:1014F00084F80D80A573206940F0200020612573D9
:101500000120BDE8F0874069EAE72DE9F0410025B8
:1015100090460E460446202717E04069C043C006A7
:101520000CD454F8301B6FF01000486144F8105987
:101530006777A577206A2062257717E0FEF772FFAC
:10154000A0EB0800B04208D83EB120684169C94309
:101550004906E2D40020BDE8F08144F8305F6773AB
:10156000A573206940F02000206125730120F2E777
:1015700070B516460D4604460DE02046FFF7BCFE4A
:1015800008B1012070BD681C05D0FEF74BFF801B21
:10159000A84207D835B120684069C0430006ECD4A2
:1015A000002070BD002044F8300F20216173A0732B
:1015B000216941F0200121612073E2E72DE9F04724
:1015C0008CB0242103A8FEF7C4FD232733A103A870
:1015D00000F052FA4FF6FF7A2322534603A935480A
:1015E000FFF72CFE4FF4FA794846FEF713FE324C13
:1015F000002504F10208257003AE0A20FEF70AFE5A
:10160000A388A168CDF80080CDE901312078627807
:1016100041002A48FEF7C6FFE08090B93554401CCF
:10162000C0B2B842FAD3227825A103A800F024FA68
:101630002322534603A91F48FFF700FEE078401C11
:10164000E0702078401CC0B22070FF28D5D3E0782D
:1016500070B93554401CC0B2B842FAD320A103A8D7
:1016600000F00AFA2322534603A91248FFF7E6FDC9
:101670004846FEF7CFFD00203554401CC0B2B842AA
:10168000FAD31DA103A800F0F7F92322534603A9BA
:101690000848FFF7D3FD0CB0BDE8F0875345415231
:1016A000434820444556495345532E2E2E200D0ABB
:1016B0000000000018010020040000208400002029
:1016C00044657669636520616464726573732D3067
:1016D000782578202D20666F756E64200D0A000035
:1016E00044657669636573206E6F20666F756E64FE
:1016F0002121210D0A000000444F4E450D0A000033
:1017000070B586B000241C480094019402940394A0
:10171000816941F010018161816901F0100104913A
:10172000816941F020018161816901F0200104910A
:10173000816941F004018161816901F00401049132
:10174000816941F00801816180690C4E00F0080058
:101750004FF400550490002229463046FEF75CFE07
:1017600001200095CDE9010402200390694630462E
:10177000FEF762FD06B070BD00100240001001408F
:1017800010B586B00024114800940194029403948B
:1017900004944FF080410594016048F6A041C0E9EF
:1017A0000114C821C0E903148461FFF784FB4FF4DE
:1017B0008050009069460548FFF7B4FB049404A9E3
:1017C00002480594FFF756FB06B010BDD800002074
:1017D000FEE7704770477047FFF722B830B58FB00B
:1017E00028216846FEF7B5FC14210AA8FEF7B1FCD3
:1017F00001210804CDE9001000240294022504917F
:10180000CDE907504FF4E01009906846FFF78CF9D6
:101810000F20CDE90A056802CDE90C4002210AA893
:101820000E94FFF795F80FB030BD00000D48016829
:1018300041F00101016041680B4A114041600168BB
:101840000A4A11400160016821F480210160416869
:1018500021F4FE0141604FF41F0181600449C0037F
:1018600008607047001002400000FFF8FFFFF6FE1E
:1018700008ED00E00148FFF7C1BB0000D8000020E0
:10188000F0B50268164B174C174D4FF08047984241
:1018900005D0B84203D0A04201D0A84203D122F023
:1018A00070064A683243984205D0B84203D0A0423D
:1018B00001D0A84203D122F44074CA6822434C6983
:1018C00022F08002224302608A68C2620A68826251
:1018D000984201D10969016301214161F0BD000015
:1018E000002C0140000400400008004010B584684E
:1018F00042EA032224F47F440A432243826010BD5B
:10190000826822F070020A4342F00701816070474A
:1019100010B5036A046A24F001040462846924F0A7
:10192000F00444EA021423F00A020A4384610262CA
:1019300010BD10B5036A23F0100303628369046AC3
:1019400023F4704343EA023224F0A00343EA011176
:101950008261016210BD00002DE9F041044600687B
:101960000169E26821F44051114301612169A068D5
:101970000843616908432168CA6841F20C639A43CD
:101980000243CA6020684169A26921F44071114391
:1019900041611E49206864253226884202D1FFF742
:1019A0007DF801E0FFF76AF800EBC00101EB0011E0
:1019B00060686FF018078000B1FBF0F2B2FBF5F23F
:1019C000B1FBF0F37A4303EB8202B1FBF0F306EBD9
:1019D0000212B2FBF5F2B3FBF5F302F0F00202EBF8
:1019E0000312B1FBF0F3B1FBF0F0B0FBF5F078437C
:1019F00003EB800006EB0010B0FBF5F0216800F06F
:101A00000F0010448860BDE8F081000000380140FC
:101A10002DE9F041984617460E460446069D1DE006
:101A2000681C1BD02DB1FEF7FDFCA0EB0800A842FE
:101A300014D92068C16821F4D071C160206841695F
:101A400021F001014161202084F8390084F83A0036
:101A5000002084F838000320BDE8F0812068006889
:101A600036EA000004D00020B842D9D00020F3E7C5
:101A70000120F9E7FEE700000FB4084B10B504A9F8
:101A800002AA039800F02CF8044602A9002000F0F6
:101A900087F9204610BC5DF814FB0000A11D00086A
:101AA0000907090E002804DB00F1E02080F800148B
:101AB000704700F00F0000F1E02080F8141D70471F
:101AC00002E008C8121F08C1002AFAD17047704707
:101AD000002001E001C1121F002AFBD17047000065
:101AE0002DE9FF4F8DB09B460F460446002606E0C9
:101AF00025280BD05A460F999047641C761C2078F5
:101B00000028F5D111B03046BDE8F08F0025A84679
:101B10000122984900E0054314F8013F203B02FAF6
:101B200003F00842F7D120782E2817D114F8010FBE
:101B300045F004052A280ED06FF02F022078A0F17E
:101B4000300109290AD808EB880102EB410100EBBA
:101B50000108641CF2E757F8048B641C20786C2899
:101B60000DD004DC4C2812D06A2811D104E074286E
:101B70000DD07A280CD10AE045F4001507E0617811
:101B800045F48015814202D1641C05F58015641C62
:101B90002278692A45D008DC002AB3D0582A69D0B7
:101BA000632A10D0642A08D13BE0702A67D0732AD8
:101BB00013D0752A5CD0782A5CD010465A460F990B
:101BC0009047761CD3E017F8040B8DF80000002036
:101BD0008DF80100E946012003E057F8049B4FF01F
:101BE000FF3069074FF0000501D40AE06D1C454540
:101BF0000DDA8542FADB19F805100029F6D106E066
:101C00006D1C8542FCDB19F805100029F8D12E4423
:101C100004E019F8010B5A460F9990476D1EF8D24F
:101C2000A5E00A200021CDE90801C5F302500228F1
:101C30000DD001CFC117031E71F100030DDA4FF073
:101C4000000CD0EB0C006CEB01012D2308E0FF1D14
:101C500027F00707F7E80201EDE72B0504D52B2352
:101C60008DF8283001233BE0EB0739D02023F7E73C
:101C70000A2000E010200021CDE9080107E0102033
:101C8000002145F00405CDE908014FF00808C5F32F
:101C9000025002280FD001CF00214FF0000A2B077D
:101CA0001FD5702A0DD0DDE908C38CF0100C5CEA5A
:101CB000030C0CD015E0FF1D27F00707F7E8020121
:101CC000EBE740228DF828204FF0010A0BE050EAA4
:101CD000010306D030238DF828308DF82920022307
:101CE0009A46582A04D024A20DF120090B9209E04B
:101CF00026A2F9E7DDE90823FEF736FA0B9B9B5C89
:101D000009F8013D50EA0102F4D1ADEB09002030A1
:101D10000890680701D44FF001080899884502DD52
:101D2000A8EB010000E000208046002506E00AA89C
:101D30005A46405D0F9990476D1C761C5545F6DB61
:101D400004E030205A460F999047761CB8F1000104
:101D5000A8F10108F5DC05E019F8010B5A460F99C6
:101D60009047761C0899481E08900029F4DC641CF2
:101D7000C5E60000092801003031323334353637EA
:101D800038396162636465660000000030313233C7
:101D90003435363738394142434445460000000067
:101DA0000A68531C0B60107070470000FEF740FD7E
:101DB000FFF714FDFFF7A4FCFFF7E2FC28482749D2
:101DC000002401604FF4E131C0E901140C21C4602A
:101DD000C0E904418461C461FFF7C7F92048214983
:101DE000943801602049C0E901144FF48041C0E9F2
:101DF000034144618461C4610462FEF719FB1B4E18
:101E00001B4F4FF400554FF4FA78642440F6FF79E5
:101E1000012229463046FEF7FFFA4046FEF7FAF95E
:101E2000002229463046FEF7F7FA3220FEF7F2F993
:101E30000B486421F838FEF78CF909480DA1F838F1
:101E4000FFF71AFE064922463C704B46F839044813
:101E5000FFF7F4F9FFF7B2FBDAE7000000380140C2
:101E60001801002000540040A0860100001001402D
:101E700000000020544553540D0A000000000000EB
:101E8000000000000102030406070809000000002A
:101E900001020304B41E000800000020200000001E
:101EA000C01A0008D41E00082000002038050000D9
:101EB000D01A00080000000000000000010000002F
:101EC000E803000001000000100000000000000016
:041ED0000024F400F6
:04000005080000ED02
:00000001FF
